:020000040000FA
:0400000080313328F0
:100008007E1480310B1D312820000E1A2C28013057
:10001800A0070030A13D29082106031D152828083E
:100028002006031D30280130F2070030F33D710827
:10003800803AF4007308803A7402031D2528720878
:100048007002031830280130F2000030F300302825
:100058000E1E3028A001A1010B117E10090080316D
:100068003528813169218031F00081316A21803160
:10007800F10081316B218031F20081316C218031B6
:10008800F30081316D218031A80081316E21A900F2
:10009800F801F901A001A101A201A3017E1020002D
:1000A800813161293D00950191019201A50104303A
:1000B800F5000030F60081312121803121001C0833
:1000C8002000A400A5012408F8002508F9007908F3
:1000D800A5007808A4000730A600250DA50CA40CDF
:1000E800A60B712824080139A700A70EA70D220026
:1000F8000E0820002706DF39270622008E0079081F
:100108002000A5007808A4000630A600250DA50C3F
:10011800A40CA60B8A2824080139A700A70DA70D4F
:1001280022000C0820002706FB39270622008C0035
:1001380079082000A5007808A4000530A600250D40
:10014800A50CA40CA60BA32824080139A700A70D09
:1001580022000C0820002706FD39270622008C0003
:1001680079082000A5007808A4000430A600250D11
:10017800A50CA40CA60BBB2824080139A700A70EC0
:10018800A70D22000C0820002706DF3927062200C9
:100198008C00080021008C0123008C0121008D01B6
:1001A80023008D01113021008E00013023008E00C4
:1001B80024000E1021009E138F309E05FC309E05F2
:1001C8001D08833910389D001D14190887396838AF
:1001D80099009512151295111508F83904389500EB
:1001E800FF3020009B009C172C00191299178B16C2
:1001F8000B118B1722008C018D018E011130F50037
:100208003A30890B0529F50B05290032080004301E
:10021800F5000030F60081312121813121001C08D0
:100228002000A30021001B082000A2002308F600DC
:100238002208F50081314C2108007508F700F70DF8
:10024800F70D21001D087706833977069D000430D5
:10025800F7003E30890B2E29F70B2E2921009D141B
:100268009D1C080034293E29803156200800813120
:100278000B2108007308003A031943294B29720817
:10028800013A03193829033A03193B294B29080075
:1002980022008E120C118C108C1276082C009800FB
:1002A8007508C03997000E303D0095000E3091005A
:1002B8000E3092000E30A50008008031CE2081312A
:1002C80081313721813164006429023400340134DA
:0602D8000034053400347F
:020000040001F9
:06000E00FC3FFF3E9F3F96
:00000001FF
